{
  "_format": "hh-sol-artifact-1",
  "contractName": "CrowdFunding",
  "sourceName": "contracts/CrowdFunding.sol",
  "abi": [
    {
      "inputs": [
        {
          "internalType": "uint256",
          "name": "",
          "type": "uint256"
        }
      ],
      "name": "campaigns",
      "outputs": [
        {
          "internalType": "address",
          "name": "owner",
          "type": "address"
        },
        {
          "internalType": "string",
          "name": "title",
          "type": "string"
        },
        {
          "internalType": "string",
          "name": "description",
          "type": "string"
        },
        {
          "internalType": "uint256",
          "name": "target",
          "type": "uint256"
        },
        {
          "internalType": "uint256",
          "name": "deadline",
          "type": "uint256"
        },
        {
          "internalType": "uint256",
          "name": "amountCollected",
          "type": "uint256"
        }
      ],
      "stateMutability": "view",
      "type": "function"
    },
    {
      "inputs": [
        {
          "internalType": "address",
          "name": "_owner",
          "type": "address"
        },
        {
          "internalType": "string",
          "name": "_title",
          "type": "string"
        },
        {
          "internalType": "string",
          "name": "_description",
          "type": "string"
        },
        {
          "internalType": "uint256",
          "name": "_target",
          "type": "uint256"
        },
        {
          "internalType": "uint256",
          "name": "_deadline",
          "type": "uint256"
        }
      ],
      "name": "createCampaign",
      "outputs": [
        {
          "internalType": "uint256",
          "name": "",
          "type": "uint256"
        }
      ],
      "stateMutability": "nonpayable",
      "type": "function"
    },
    {
      "inputs": [
        {
          "internalType": "uint256",
          "name": "_id",
          "type": "uint256"
        }
      ],
      "name": "donateToCampaign",
      "outputs": [],
      "stateMutability": "payable",
      "type": "function"
    },
    {
      "inputs": [
        {
          "internalType": "uint256",
          "name": "_id",
          "type": "uint256"
        }
      ],
      "name": "getCampaign",
      "outputs": [
        {
          "components": [
            {
              "internalType": "address",
              "name": "owner",
              "type": "address"
            },
            {
              "internalType": "string",
              "name": "title",
              "type": "string"
            },
            {
              "internalType": "string",
              "name": "description",
              "type": "string"
            },
            {
              "internalType": "uint256",
              "name": "target",
              "type": "uint256"
            },
            {
              "internalType": "uint256",
              "name": "deadline",
              "type": "uint256"
            },
            {
              "internalType": "uint256",
              "name": "amountCollected",
              "type": "uint256"
            },
            {
              "internalType": "address[]",
              "name": "donators",
              "type": "address[]"
            },
            {
              "internalType": "uint256[]",
              "name": "donations",
              "type": "uint256[]"
            }
          ],
          "internalType": "struct CrowdFunding.Campaign",
          "name": "",
          "type": "tuple"
        }
      ],
      "stateMutability": "view",
      "type": "function"
    },
    {
      "inputs": [
        {
          "internalType": "uint256",
          "name": "_id",
          "type": "uint256"
        }
      ],
      "name": "getDonators",
      "outputs": [
        {
          "internalType": "address[]",
          "name": "",
          "type": "address[]"
        },
        {
          "internalType": "uint256[]",
          "name": "",
          "type": "uint256[]"
        }
      ],
      "stateMutability": "view",
      "type": "function"
    },
    {
      "inputs": [],
      "name": "numberOfCampaigns",
      "outputs": [
        {
          "internalType": "uint256",
          "name": "",
          "type": "uint256"
        }
      ],
      "stateMutability": "view",
      "type": "function"
    }
  ],
  "bytecode": "0x6080604052600060015534801561001557600080fd5b50611619806100256000396000f3fe6080604052600436106100555760003560e01c8063075843c31461005a57806307ca140d146100975780630fa91fa9146100c2578063141961bc1461010057806342a4fda8146101425780635598f8cc1461015e575b600080fd5b34801561006657600080fd5b50610081600480360381019061007c9190610b85565b61019b565b60405161008e9190610c47565b60405180910390f35b3480156100a357600080fd5b506100ac6102ac565b6040516100b99190610c47565b60405180910390f35b3480156100ce57600080fd5b506100e960048036038101906100e49190610c62565b6102b2565b6040516100f7929190610e0b565b60405180910390f35b34801561010c57600080fd5b5061012760048036038101906101229190610c62565b6103c2565b60405161013996959493929190610ed0565b60405180910390f35b61015c60048036038101906101579190610c62565b61052e565b005b34801561016a57600080fd5b5061018560048036038101906101809190610c62565b610691565b604051610192919061112c565b60405180910390f35b60004282116101df576040517f08c379a00000000000000000000000000000000000000000000000000000000081526004016101d6906111c0565b60405180910390fd5b600080600060015481526020019081526020016000209050868160000160006101000a81548173ffffffffffffffffffffffffffffffffffffffff021916908373ffffffffffffffffffffffffffffffffffffffff1602179055508581600101908161024b91906113ec565b508481600201908161025d91906113ec565b50838160030181905550828160040181905550600081600501819055506001600081548092919061028d906114ed565b9190505550600180546102a09190611535565b91505095945050505050565b60015481565b6060806000808481526020019081526020016000206006016000808581526020019081526020016000206007018180548060200260200160405190810160405280929190818152602001828054801561036057602002820191906000526020600020905b8160009054906101000a900473ffffffffffffffffffffffffffffffffffffffff1673ffffffffffffffffffffffffffffffffffffffff1681526020019060010190808311610316575b50505050509150808054806020026020016040519081016040528092919081815260200182805480156103b257602002820191906000526020600020905b81548152602001906001019080831161039e575b5050505050905091509150915091565b60006020528060005260406000206000915090508060000160009054906101000a900473ffffffffffffffffffffffffffffffffffffffff169080600101805461040b9061120f565b80601f01602080910402602001604051908101604052809291908181526020018280546104379061120f565b80156104845780601f1061045957610100808354040283529160200191610484565b820191906000526020600020905b81548152906001019060200180831161046757829003601f168201915b5050505050908060020180546104999061120f565b80601f01602080910402602001604051908101604052809291908181526020018280546104c59061120f565b80156105125780601f106104e757610100808354040283529160200191610512565b820191906000526020600020905b8154815290600101906020018083116104f557829003601f168201915b5050505050908060030154908060040154908060050154905086565b60003490506000806000848152602001908152602001600020905080600601339080600181540180825580915050600190039060005260206000200160009091909190916101000a81548173ffffffffffffffffffffffffffffffffffffffff021916908373ffffffffffffffffffffffffffffffffffffffff1602179055508060070182908060018154018082558091505060019003906000526020600020016000909190919091505560008160000160009054906101000a900473ffffffffffffffffffffffffffffffffffffffff1673ffffffffffffffffffffffffffffffffffffffff16836040516106239061159a565b60006040518083038185875af1925050503d8060008114610660576040519150601f19603f3d011682016040523d82523d6000602084013e610665565b606091505b50509050801561068b578282600501600082825461068391906115af565b925050819055505b50505050565b61069961093c565b600080838152602001908152602001600020604051806101000160405290816000820160009054906101000a900473ffffffffffffffffffffffffffffffffffffffff1673ffffffffffffffffffffffffffffffffffffffff1673ffffffffffffffffffffffffffffffffffffffff16815260200160018201805461071d9061120f565b80601f01602080910402602001604051908101604052809291908181526020018280546107499061120f565b80156107965780601f1061076b57610100808354040283529160200191610796565b820191906000526020600020905b81548152906001019060200180831161077957829003601f168201915b505050505081526020016002820180546107af9061120f565b80601f01602080910402602001604051908101604052809291908181526020018280546107db9061120f565b80156108285780601f106107fd57610100808354040283529160200191610828565b820191906000526020600020905b81548152906001019060200180831161080b57829003601f168201915b50505050508152602001600382015481526020016004820154815260200160058201548152602001600682018054806020026020016040519081016040528092919081815260200182805480156108d457602002820191906000526020600020905b8160009054906101000a900473ffffffffffffffffffffffffffffffffffffffff1673ffffffffffffffffffffffffffffffffffffffff168152602001906001019080831161088a575b505050505081526020016007820180548060200260200160405190810160405280929190818152602001828054801561092c57602002820191906000526020600020905b815481526020019060010190808311610918575b5050505050815250509050919050565b604051806101000160405280600073ffffffffffffffffffffffffffffffffffffffff168152602001606081526020016060815260200160008152602001600081526020016000815260200160608152602001606081525090565b6000604051905090565b600080fd5b600080fd5b600073ffffffffffffffffffffffffffffffffffffffff82169050919050565b60006109d6826109ab565b9050919050565b6109e6816109cb565b81146109f157600080fd5b50565b600081359050610a03816109dd565b92915050565b600080fd5b600080fd5b6000601f19601f8301169050919050565b7f4e487b7100000000000000000000000000000000000000000000000000000000600052604160045260246000fd5b610a5c82610a13565b810181811067ffffffffffffffff82111715610a7b57610a7a610a24565b5b80604052505050565b6000610a8e610997565b9050610a9a8282610a53565b919050565b600067ffffffffffffffff821115610aba57610ab9610a24565b5b610ac382610a13565b9050602081019050919050565b82818337600083830152505050565b6000610af2610aed84610a9f565b610a84565b905082815260208101848484011115610b0e57610b0d610a0e565b5b610b19848285610ad0565b509392505050565b600082601f830112610b3657610b35610a09565b5b8135610b46848260208601610adf565b91505092915050565b6000819050919050565b610b6281610b4f565b8114610b6d57600080fd5b50565b600081359050610b7f81610b59565b92915050565b600080600080600060a08688031215610ba157610ba06109a1565b5b6000610baf888289016109f4565b955050602086013567ffffffffffffffff811115610bd057610bcf6109a6565b5b610bdc88828901610b21565b945050604086013567ffffffffffffffff811115610bfd57610bfc6109a6565b5b610c0988828901610b21565b9350506060610c1a88828901610b70565b9250506080610c2b88828901610b70565b9150509295509295909350565b610c4181610b4f565b82525050565b6000602082019050610c5c6000830184610c38565b92915050565b600060208284031215610c7857610c776109a1565b5b6000610c8684828501610b70565b91505092915050565b600081519050919050565b600082825260208201905092915050565b6000819050602082019050919050565b610cc4816109cb565b82525050565b6000610cd68383610cbb565b60208301905092915050565b6000602082019050919050565b6000610cfa82610c8f565b610d048185610c9a565b9350610d0f83610cab565b8060005b83811015610d40578151610d278882610cca565b9750610d3283610ce2565b925050600181019050610d13565b5085935050505092915050565b600081519050919050565b600082825260208201905092915050565b6000819050602082019050919050565b610d8281610b4f565b82525050565b6000610d948383610d79565b60208301905092915050565b6000602082019050919050565b6000610db882610d4d565b610dc28185610d58565b9350610dcd83610d69565b8060005b83811015610dfe578151610de58882610d88565b9750610df083610da0565b925050600181019050610dd1565b5085935050505092915050565b60006040820190508181036000830152610e258185610cef565b90508181036020830152610e398184610dad565b90509392505050565b610e4b816109cb565b82525050565b600081519050919050565b600082825260208201905092915050565b60005b83811015610e8b578082015181840152602081019050610e70565b60008484015250505050565b6000610ea282610e51565b610eac8185610e5c565b9350610ebc818560208601610e6d565b610ec581610a13565b840191505092915050565b600060c082019050610ee56000830189610e42565b8181036020830152610ef78188610e97565b90508181036040830152610f0b8187610e97565b9050610f1a6060830186610c38565b610f276080830185610c38565b610f3460a0830184610c38565b979650505050505050565b600082825260208201905092915050565b6000610f5b82610e51565b610f658185610f3f565b9350610f75818560208601610e6d565b610f7e81610a13565b840191505092915050565b600082825260208201905092915050565b6000610fa582610c8f565b610faf8185610f89565b9350610fba83610cab565b8060005b83811015610feb578151610fd28882610cca565b9750610fdd83610ce2565b925050600181019050610fbe565b5085935050505092915050565b600082825260208201905092915050565b600061101482610d4d565b61101e8185610ff8565b935061102983610d69565b8060005b8381101561105a5781516110418882610d88565b975061104c83610da0565b92505060018101905061102d565b5085935050505092915050565b6000610100830160008301516110806000860182610cbb565b50602083015184820360208601526110988282610f50565b915050604083015184820360408601526110b28282610f50565b91505060608301516110c76060860182610d79565b5060808301516110da6080860182610d79565b5060a08301516110ed60a0860182610d79565b5060c083015184820360c08601526111058282610f9a565b91505060e083015184820360e086015261111f8282611009565b9150508091505092915050565b600060208201905081810360008301526111468184611067565b905092915050565b7f54686520646561646c696e652073686f756c642062652061206461746520696e60008201527f2074686520667574757265000000000000000000000000000000000000000000602082015250565b60006111aa602b83610e5c565b91506111b58261114e565b604082019050919050565b600060208201905081810360008301526111d98161119d565b9050919050565b7f4e487b7100000000000000000000000000000000000000000000000000000000600052602260045260246000fd5b6000600282049050600182168061122757607f821691505b60208210810361123a576112396111e0565b5b50919050565b60008190508160005260206000209050919050565b60006020601f8301049050919050565b600082821b905092915050565b6000600883026112a27fffffffffffffffffffffffffffffffffffffffffffffffffffffffffffffffff82611265565b6112ac8683611265565b95508019841693508086168417925050509392505050565b6000819050919050565b60006112e96112e46112df84610b4f565b6112c4565b610b4f565b9050919050565b6000819050919050565b611303836112ce565b61131761130f826112f0565b848454611272565b825550505050565b600090565b61132c61131f565b6113378184846112fa565b505050565b5b8181101561135b57611350600082611324565b60018101905061133d565b5050565b601f8211156113a05761137181611240565b61137a84611255565b81016020851015611389578190505b61139d61139585611255565b83018261133c565b50505b505050565b600082821c905092915050565b60006113c3600019846008026113a5565b1980831691505092915050565b60006113dc83836113b2565b9150826002028217905092915050565b6113f582610e51565b67ffffffffffffffff81111561140e5761140d610a24565b5b611418825461120f565b61142382828561135f565b600060209050601f8311600181146114565760008415611444578287015190505b61144e85826113d0565b8655506114b6565b601f19841661146486611240565b60005b8281101561148c57848901518255600182019150602085019450602081019050611467565b868310156114a957848901516114a5601f8916826113b2565b8355505b6001600288020188555050505b505050505050565b7f4e487b7100000000000000000000000000000000000000000000000000000000600052601160045260246000fd5b60006114f882610b4f565b91507fffffffffffffffffffffffffffffffffffffffffffffffffffffffffffffffff820361152a576115296114be565b5b600182019050919050565b600061154082610b4f565b915061154b83610b4f565b9250828203905081811115611563576115626114be565b5b92915050565b600081905092915050565b50565b6000611584600083611569565b915061158f82611574565b600082019050919050565b60006115a582611577565b9150819050919050565b60006115ba82610b4f565b91506115c583610b4f565b92508282019050808211156115dd576115dc6114be565b5b9291505056fea26469706673582212203a49fa197349e416c45f2a16859876f40db10c8298af5503070560c1dd4aecbf64736f6c63430008120033",
  "linkReferences": {},
  "deployedLinkReferences": {}
}